{
  "contractName": "DocumentVerification",
  "abi": [
    {
      "anonymous": false,
      "inputs": [
        {
          "indexed": false,
          "internalType": "uint256",
          "name": "skillId",
          "type": "uint256"
        },
        {
          "indexed": false,
          "internalType": "string",
          "name": "name",
          "type": "string"
        },
        {
          "indexed": false,
          "internalType": "uint256",
          "name": "level",
          "type": "uint256"
        },
        {
          "indexed": false,
          "internalType": "bytes32",
          "name": "fileHash",
          "type": "bytes32"
        },
        {
          "indexed": false,
          "internalType": "address",
          "name": "owner",
          "type": "address"
        }
      ],
      "name": "SkillAdded",
      "type": "event"
    },
    {
      "inputs": [
        {
          "internalType": "address",
          "name": "",
          "type": "address"
        },
        {
          "internalType": "uint256",
          "name": "",
          "type": "uint256"
        }
      ],
      "name": "ownedSkills",
      "outputs": [
        {
          "internalType": "uint256",
          "name": "",
          "type": "uint256"
        }
      ],
      "stateMutability": "view",
      "type": "function",
      "constant": true
    },
    {
      "inputs": [
        {
          "internalType": "uint256",
          "name": "",
          "type": "uint256"
        }
      ],
      "name": "skills",
      "outputs": [
        {
          "internalType": "string",
          "name": "name",
          "type": "string"
        },
        {
          "internalType": "uint256",
          "name": "level",
          "type": "uint256"
        },
        {
          "internalType": "bytes32",
          "name": "fileHash",
          "type": "bytes32"
        },
        {
          "internalType": "address",
          "name": "owner",
          "type": "address"
        }
      ],
      "stateMutability": "view",
      "type": "function",
      "constant": true
    },
    {
      "inputs": [
        {
          "internalType": "string",
          "name": "_name",
          "type": "string"
        },
        {
          "internalType": "string",
          "name": "_email",
          "type": "string"
        },
        {
          "internalType": "string",
          "name": "_password",
          "type": "string"
        }
      ],
      "name": "createUser",
      "outputs": [],
      "stateMutability": "nonpayable",
      "type": "function"
    },
    {
      "inputs": [
        {
          "internalType": "string",
          "name": "_email",
          "type": "string"
        },
        {
          "internalType": "string",
          "name": "_password",
          "type": "string"
        }
      ],
      "name": "login",
      "outputs": [],
      "stateMutability": "view",
      "type": "function",
      "constant": true
    },
    {
      "inputs": [
        {
          "internalType": "string",
          "name": "name",
          "type": "string"
        },
        {
          "internalType": "uint256",
          "name": "level",
          "type": "uint256"
        },
        {
          "internalType": "string",
          "name": "fileHash",
          "type": "string"
        }
      ],
      "name": "addSkill",
      "outputs": [],
      "stateMutability": "nonpayable",
      "type": "function"
    },
    {
      "inputs": [
        {
          "internalType": "uint256",
          "name": "skillId",
          "type": "uint256"
        }
      ],
      "name": "getSkill",
      "outputs": [
        {
          "internalType": "string",
          "name": "",
          "type": "string"
        },
        {
          "internalType": "uint256",
          "name": "",
          "type": "uint256"
        },
        {
          "internalType": "bytes32",
          "name": "",
          "type": "bytes32"
        },
        {
          "internalType": "address",
          "name": "",
          "type": "address"
        }
      ],
      "stateMutability": "view",
      "type": "function",
      "constant": true
    },
    {
      "inputs": [
        {
          "internalType": "address",
          "name": "owner",
          "type": "address"
        }
      ],
      "name": "getOwnedSkills",
      "outputs": [
        {
          "internalType": "uint256[]",
          "name": "",
          "type": "uint256[]"
        }
      ],
      "stateMutability": "view",
      "type": "function",
      "constant": true
    },
    {
      "inputs": [
        {
          "internalType": "string",
          "name": "fileHash",
          "type": "string"
        },
        {
          "internalType": "string",
          "name": "name",
          "type": "string"
        },
        {
          "internalType": "uint256",
          "name": "level",
          "type": "uint256"
        }
      ],
      "name": "verifySkill",
      "outputs": [
        {
          "internalType": "bool",
          "name": "",
          "type": "bool"
        }
      ],
      "stateMutability": "view",
      "type": "function",
      "constant": true
    }
  ],
  "bytecode": "0x608060405234801561001057600080fd5b50611acd806100206000396000f3fe608060405234801561001057600080fd5b50600436106100885760003560e01c8063656ae3041161005b578063656ae30414610114578063787b9322146101445780639fe661a914610174578063bd880fae146101a457610088565b806306023a501461008d57806350d15fbe146100a957806358467dbc146100dc57806359ae069b146100f8575b600080fd5b6100a760048036038101906100a29190610d04565b6101d7565b005b6100c360048036038101906100be9190610d8f565b610374565b6040516100d39493929190610ea4565b60405180910390f35b6100f660048036038101906100f19190610ef0565b61045c565b005b610112600480360381019061010d9190610f68565b6105fc565b005b61012e6004803603810190610129919061103b565b61085b565b60405161013b9190611126565b60405180910390f35b61015e60048036038101906101599190611148565b6108f2565b60405161016b9190611188565b60405180910390f35b61018e600480360381019061018991906111a3565b610923565b60405161019b9190611249565b60405180910390f35b6101be60048036038101906101b99190610d8f565b610a1b565b6040516101ce9493929190610ea4565b60405180910390f35b600081805190602001209050600060405180608001604052808681526020018581526020018381526020013373ffffffffffffffffffffffffffffffffffffffff16815250905060006002805490509050600282908060018154018082558091505060019003906000526020600020906004020160009091909190915060008201518160000190816102699190611470565b50602082015181600101556040820151816002015560608201518160030160006101000a81548173ffffffffffffffffffffffffffffffffffffffff021916908373ffffffffffffffffffffffffffffffffffffffff1602179055505050600360003373ffffffffffffffffffffffffffffffffffffffff1673ffffffffffffffffffffffffffffffffffffffff1681526020019081526020016000208190806001815401808255809150506001900390600052602060002001600090919091909150557fb5e9c84512deb2bf4ef4d994044a2f29b92361d65493d3e65ed4ebfdf3b3fd9a8187878633604051610364959493929190611542565b60405180910390a1505050505050565b6002818154811061038457600080fd5b90600052602060002090600402016000915090508060000180546103a790611293565b80601f01602080910402602001604051908101604052809291908181526020018280546103d390611293565b80156104205780601f106103f557610100808354040283529160200191610420565b820191906000526020600020905b81548152906001019060200180831161040357829003601f168201915b5050505050908060010154908060020154908060030160009054906101000a900473ffffffffffffffffffffffffffffffffffffffff16905084565b8160405160200161046d91906115d8565b604051602081830303815290604052805190602001206000803373ffffffffffffffffffffffffffffffffffffffff1673ffffffffffffffffffffffffffffffffffffffff1681526020019081526020016000206001016040516020016104d49190611672565b604051602081830303815290604052805190602001201461052a576040517f08c379a0000000000000000000000000000000000000000000000000000000008152600401610521906116d5565b60405180910390fd5b8060405160200161053b91906115d8565b604051602081830303815290604052805190602001206000803373ffffffffffffffffffffffffffffffffffffffff1673ffffffffffffffffffffffffffffffffffffffff1681526020019081526020016000206002016040516020016105a29190611672565b60405160208183030381529060405280519060200120146105f8576040517f08c379a00000000000000000000000000000000000000000000000000000000081526004016105ef90611741565b60405180910390fd5b5050565b6000835111610640576040517f08c379a0000000000000000000000000000000000000000000000000000000008152600401610637906117ad565b60405180910390fd5b6000825111610684576040517f08c379a000000000000000000000000000000000000000000000000000000000815260040161067b90611819565b60405180910390fd5b60008151116106c8576040517f08c379a00000000000000000000000000000000000000000000000000000000081526004016106bf90611885565b60405180910390fd5b600015156000803373ffffffffffffffffffffffffffffffffffffffff1673ffffffffffffffffffffffffffffffffffffffff16815260200190815260200160002060030160009054906101000a900460ff1615151461075d576040517f08c379a000000000000000000000000000000000000000000000000000000000815260040161075490611917565b60405180910390fd5b60008060003373ffffffffffffffffffffffffffffffffffffffff1673ffffffffffffffffffffffffffffffffffffffff1681526020019081526020016000209050838160000190816107b09190611470565b50828160010190816107c29190611470565b50818160020190816107d49190611470565b5060008160030160006101000a81548160ff0219169083151502179055506001339080600181540180825580915050600190039060005260206000200160009091909190916101000a81548173ffffffffffffffffffffffffffffffffffffffff021916908373ffffffffffffffffffffffffffffffffffffffff16021790555050505050565b6060600360008373ffffffffffffffffffffffffffffffffffffffff1673ffffffffffffffffffffffffffffffffffffffff1681526020019081526020016000208054806020026020016040519081016040528092919081815260200182805480156108e657602002820191906000526020600020905b8154815260200190600101908083116108d2575b50505050509050919050565b6003602052816000526040600020818154811061090e57600080fd5b90600052602060002001600091509150505481565b6000808480519060200120905060008480519060200120905060005b600280549050811015610a0c57826002828154811061096157610960611937565b5b9060005260206000209060040201600201541480156109b8575081600282815481106109905761098f611937565b5b90600052602060002090600402016000016040516109ae9190611a09565b6040518091039020145b80156109e8575084600282815481106109d4576109d3611937565b5b906000526020600020906004020160010154145b156109f95760019350505050610a14565b8080610a0490611a4f565b91505061093f565b506000925050505b9392505050565b6060600080600060028581548110610a3657610a35611937565b5b906000526020600020906004020160000160028681548110610a5b57610a5a611937565b5b90600052602060002090600402016001015460028781548110610a8157610a80611937565b5b90600052602060002090600402016002015460028881548110610aa757610aa6611937565b5b906000526020600020906004020160030160009054906101000a900473ffffffffffffffffffffffffffffffffffffffff16838054610ae590611293565b80601f0160208091040260200160405190810160405280929190818152602001828054610b1190611293565b8015610b5e5780601f10610b3357610100808354040283529160200191610b5e565b820191906000526020600020905b815481529060010190602001808311610b4157829003601f168201915b5050505050935093509350935093509193509193565b6000604051905090565b600080fd5b600080fd5b600080fd5b600080fd5b6000601f19601f8301169050919050565b7f4e487b7100000000000000000000000000000000000000000000000000000000600052604160045260246000fd5b610bdb82610b92565b810181811067ffffffffffffffff82111715610bfa57610bf9610ba3565b5b80604052505050565b6000610c0d610b74565b9050610c198282610bd2565b919050565b600067ffffffffffffffff821115610c3957610c38610ba3565b5b610c4282610b92565b9050602081019050919050565b82818337600083830152505050565b6000610c71610c6c84610c1e565b610c03565b905082815260208101848484011115610c8d57610c8c610b8d565b5b610c98848285610c4f565b509392505050565b600082601f830112610cb557610cb4610b88565b5b8135610cc5848260208601610c5e565b91505092915050565b6000819050919050565b610ce181610cce565b8114610cec57600080fd5b50565b600081359050610cfe81610cd8565b92915050565b600080600060608486031215610d1d57610d1c610b7e565b5b600084013567ffffffffffffffff811115610d3b57610d3a610b83565b5b610d4786828701610ca0565b9350506020610d5886828701610cef565b925050604084013567ffffffffffffffff811115610d7957610d78610b83565b5b610d8586828701610ca0565b9150509250925092565b600060208284031215610da557610da4610b7e565b5b6000610db384828501610cef565b91505092915050565b600081519050919050565b600082825260208201905092915050565b60005b83811015610df6578082015181840152602081019050610ddb565b60008484015250505050565b6000610e0d82610dbc565b610e178185610dc7565b9350610e27818560208601610dd8565b610e3081610b92565b840191505092915050565b610e4481610cce565b82525050565b6000819050919050565b610e5d81610e4a565b82525050565b600073ffffffffffffffffffffffffffffffffffffffff82169050919050565b6000610e8e82610e63565b9050919050565b610e9e81610e83565b82525050565b60006080820190508181036000830152610ebe8187610e02565b9050610ecd6020830186610e3b565b610eda6040830185610e54565b610ee76060830184610e95565b95945050505050565b60008060408385031215610f0757610f06610b7e565b5b600083013567ffffffffffffffff811115610f2557610f24610b83565b5b610f3185828601610ca0565b925050602083013567ffffffffffffffff811115610f5257610f51610b83565b5b610f5e85828601610ca0565b9150509250929050565b600080600060608486031215610f8157610f80610b7e565b5b600084013567ffffffffffffffff811115610f9f57610f9e610b83565b5b610fab86828701610ca0565b935050602084013567ffffffffffffffff811115610fcc57610fcb610b83565b5b610fd886828701610ca0565b925050604084013567ffffffffffffffff811115610ff957610ff8610b83565b5b61100586828701610ca0565b9150509250925092565b61101881610e83565b811461102357600080fd5b50565b6000813590506110358161100f565b92915050565b60006020828403121561105157611050610b7e565b5b600061105f84828501611026565b91505092915050565b600081519050919050565b600082825260208201905092915050565b6000819050602082019050919050565b61109d81610cce565b82525050565b60006110af8383611094565b60208301905092915050565b6000602082019050919050565b60006110d382611068565b6110dd8185611073565b93506110e883611084565b8060005b8381101561111957815161110088826110a3565b975061110b836110bb565b9250506001810190506110ec565b5085935050505092915050565b6000602082019050818103600083015261114081846110c8565b905092915050565b6000806040838503121561115f5761115e610b7e565b5b600061116d85828601611026565b925050602061117e85828601610cef565b9150509250929050565b600060208201905061119d6000830184610e3b565b92915050565b6000806000606084860312156111bc576111bb610b7e565b5b600084013567ffffffffffffffff8111156111da576111d9610b83565b5b6111e686828701610ca0565b935050602084013567ffffffffffffffff81111561120757611206610b83565b5b61121386828701610ca0565b925050604061122486828701610cef565b9150509250925092565b60008115159050919050565b6112438161122e565b82525050565b600060208201905061125e600083018461123a565b92915050565b7f4e487b7100000000000000000000000000000000000000000000000000000000600052602260045260246000fd5b600060028204905060018216806112ab57607f821691505b6020821081036112be576112bd611264565b5b50919050565b60008190508160005260206000209050919050565b60006020601f8301049050919050565b600082821b905092915050565b6000600883026113267fffffffffffffffffffffffffffffffffffffffffffffffffffffffffffffffff826112e9565b61133086836112e9565b95508019841693508086168417925050509392505050565b6000819050919050565b600061136d61136861136384610cce565b611348565b610cce565b9050919050565b6000819050919050565b61138783611352565b61139b61139382611374565b8484546112f6565b825550505050565b600090565b6113b06113a3565b6113bb81848461137e565b505050565b5b818110156113df576113d46000826113a8565b6001810190506113c1565b5050565b601f821115611424576113f5816112c4565b6113fe846112d9565b8101602085101561140d578190505b611421611419856112d9565b8301826113c0565b50505b505050565b600082821c905092915050565b600061144760001984600802611429565b1980831691505092915050565b60006114608383611436565b9150826002028217905092915050565b61147982610dbc565b67ffffffffffffffff81111561149257611491610ba3565b5b61149c8254611293565b6114a78282856113e3565b600060209050601f8311600181146114da57600084156114c8578287015190505b6114d28582611454565b86555061153a565b601f1984166114e8866112c4565b60005b82811015611510578489015182556001820191506020850194506020810190506114eb565b8683101561152d5784890151611529601f891682611436565b8355505b6001600288020188555050505b505050505050565b600060a0820190506115576000830188610e3b565b81810360208301526115698187610e02565b90506115786040830186610e3b565b6115856060830185610e54565b6115926080830184610e95565b9695505050505050565b600081905092915050565b60006115b282610dbc565b6115bc818561159c565b93506115cc818560208601610dd8565b80840191505092915050565b60006115e482846115a7565b915081905092915050565b600081546115fc81611293565b611606818661159c565b94506001821660008114611621576001811461163657611669565b60ff1983168652811515820286019350611669565b61163f856112c4565b60005b8381101561166157815481890152600182019150602081019050611642565b838801955050505b50505092915050565b600061167e82846115ef565b915081905092915050565b7f496e76616c696420656d61696c00000000000000000000000000000000000000600082015250565b60006116bf600d83610dc7565b91506116ca82611689565b602082019050919050565b600060208201905081810360008301526116ee816116b2565b9050919050565b7f496e76616c69642070617373776f726400000000000000000000000000000000600082015250565b600061172b601083610dc7565b9150611736826116f5565b602082019050919050565b6000602082019050818103600083015261175a8161171e565b9050919050565b7f4e616d652063616e6e6f7420626520656d707479000000000000000000000000600082015250565b6000611797601483610dc7565b91506117a282611761565b602082019050919050565b600060208201905081810360008301526117c68161178a565b9050919050565b7f456d61696c2063616e6e6f7420626520656d7074790000000000000000000000600082015250565b6000611803601583610dc7565b915061180e826117cd565b602082019050919050565b60006020820190508181036000830152611832816117f6565b9050919050565b7f50617373776f72642063616e6e6f7420626520656d7074790000000000000000600082015250565b600061186f601883610dc7565b915061187a82611839565b602082019050919050565b6000602082019050818103600083015261189e81611862565b9050919050565b7f41646d696e2075736572732063616e6e6f7420637265617465206e657720616360008201527f636f756e74730000000000000000000000000000000000000000000000000000602082015250565b6000611901602683610dc7565b915061190c826118a5565b604082019050919050565b60006020820190508181036000830152611930816118f4565b9050919050565b7f4e487b7100000000000000000000000000000000000000000000000000000000600052603260045260246000fd5b600081905092915050565b60008190508160005260206000209050919050565b6000815461199381611293565b61199d8186611966565b945060018216600081146119b857600181146119cd57611a00565b60ff1983168652811515820286019350611a00565b6119d685611971565b60005b838110156119f8578154818901526001820191506020810190506119d9565b838801955050505b50505092915050565b6000611a158284611986565b915081905092915050565b7f4e487b7100000000000000000000000000000000000000000000000000000000600052601160045260246000fd5b6000611a5a82610cce565b91507fffffffffffffffffffffffffffffffffffffffffffffffffffffffffffffffff8203611a8c57611a8b611a20565b5b60018201905091905056fea2646970667358221220e6fe0f081a999bbc54e5e0a28221eec13bce379002ffe51cb4060735294fc43d64736f6c63430008120033",
  "immutableReferences": {},
  "source": "// SPDX-License-Identifier: MIT\npragma solidity >=0.4.22 <0.9.0;\n\ncontract DocumentVerification {\n    // Define a struct to represent a skill or qualification\n    struct Skill {\n        string name;\n        uint256 level;\n        bytes32 fileHash;\n        address owner;\n    }\n    struct User {\n        string name;\n        string email;\n        string password;\n        bool isAdmin;\n        mapping (uint256 => Skill) skills;\n        uint256[] skillIds;\n    }\n     mapping (address => User) private users;\n    address[] private userAddresses;\n    function createUser(string memory _name, string memory _email, string memory _password) public {\n        require(bytes(_name).length > 0, \"Name cannot be empty\");\n        require(bytes(_email).length > 0, \"Email cannot be empty\");\n        require(bytes(_password).length > 0, \"Password cannot be empty\");\n        require(users[msg.sender].isAdmin == false, \"Admin users cannot create new accounts\");\n\n        User storage user = users[msg.sender];\n        user.name = _name;\n        user.email = _email;\n        user.password = _password;\n        user.isAdmin = false;\n\n        userAddresses.push(msg.sender);\n    }\n    // modifier onlyRegistered() {\n    //     require(bytes(users[msg.sender].name).length > 0, \"User is not registered\");\n    //     _;\n    // }\n    function login(string memory _email, string memory _password) public view {\n        // Check if the email and password match the stored values\n        require(keccak256(abi.encodePacked(users[msg.sender].email)) == keccak256(abi.encodePacked(_email)), \"Invalid email\");\n        require(keccak256(abi.encodePacked(users[msg.sender].password)) == keccak256(abi.encodePacked(_password)), \"Invalid password\");\n\n    }\n    // Define an array to store all skills\n    Skill[] public skills;\n    \n    // Define a mapping to keep track of skills owned by each address\n    mapping (address => uint[]) public ownedSkills;\n    \n    // Define an event to emit when a new skill is added\n    event SkillAdded(uint skillId, string name, uint256 level, bytes32 fileHash, address owner);\n    \n    // Define a function to add a new skill\n    function addSkill(string memory name, uint256 level, string memory fileHash) public {\n    // Convert file hash to bytes32 using keccak256 hash function\n    bytes32 fileHashBytes = keccak256(bytes(fileHash));\n    \n    // Create a new Skill struct with the given parameters\n    Skill memory newSkill = Skill(name, level, fileHashBytes, msg.sender);\n    \n    // Add the new skill to the skills array and get its ID\n    uint skillId = skills.length;\n    skills.push(newSkill);\n    \n    // Add the new skill ID to the ownedSkills mapping for the owner's address\n    ownedSkills[msg.sender].push(skillId);\n    \n    // Emit a SkillAdded event with the new skill's details\n    emit SkillAdded(skillId, name, level, fileHashBytes, msg.sender);\n}\n    // Define a function to get the details of a skill by ID\n    function getSkill(uint skillId) public view returns (string memory, uint256, bytes32, address) {\n        // Return the name, level, file hash, and owner of the skill with the given ID\n        return (skills[skillId].name, skills[skillId].level, skills[skillId].fileHash, skills[skillId].owner);\n    }\n    \n    // Define a function to get the IDs of all skills owned by an address\n    function getOwnedSkills(address owner) public view returns (uint[] memory) {\n        // Return the array of skill IDs owned by the given address\n        return ownedSkills[owner];\n    }\n    \n    // Define a function to verify a skill by file hash\n    function verifySkill(string memory fileHash, string memory name, uint256 level) public view returns (bool) {\n    bytes32 fileHashHash = keccak256(bytes(fileHash));\n    bytes32 nameHash = keccak256(bytes(name));\n    for (uint i = 0; i < skills.length; i++) {\n        if (skills[i].fileHash == fileHashHash && keccak256(bytes(skills[i].name)) == nameHash && skills[i].level == level) {\n            return true;\n        }\n    }\n    return false;\n}\n\n}\n",
  "sourcePath": "F:\\Projects\\Blockchain\\Skill\\document-verify\\contracts\\DocumentVerification.sol",
  "compiler": {
    "name": "solc",
    "version": "0.8.18+commit.87f61d96.Emscripten.clang"
  },
  "schemaVersion": "3.4.12",
  "updatedAt": "2023-05-03T16:46:03.408Z",
  "networkType": "ethereum",
  "devdoc": {
    "kind": "dev",
    "methods": {},
    "version": 1
  },
  "userdoc": {
    "kind": "user",
    "methods": {},
    "version": 1
  }
}