{
  "contractName": "DocumentVerification",
  "abi": [
    {
      "anonymous": false,
      "inputs": [
        {
          "indexed": false,
          "internalType": "uint256",
          "name": "skillId",
          "type": "uint256"
        },
        {
          "indexed": false,
          "internalType": "string",
          "name": "name",
          "type": "string"
        },
        {
          "indexed": false,
          "internalType": "uint256",
          "name": "level",
          "type": "uint256"
        },
        {
          "indexed": false,
          "internalType": "bytes32",
          "name": "fileHash",
          "type": "bytes32"
        },
        {
          "indexed": false,
          "internalType": "address",
          "name": "owner",
          "type": "address"
        }
      ],
      "name": "SkillAdded",
      "type": "event"
    },
    {
      "inputs": [
        {
          "internalType": "address",
          "name": "",
          "type": "address"
        },
        {
          "internalType": "uint256",
          "name": "",
          "type": "uint256"
        }
      ],
      "name": "ownedSkills",
      "outputs": [
        {
          "internalType": "uint256",
          "name": "",
          "type": "uint256"
        }
      ],
      "stateMutability": "view",
      "type": "function",
      "constant": true
    },
    {
      "inputs": [
        {
          "internalType": "uint256",
          "name": "",
          "type": "uint256"
        }
      ],
      "name": "skills",
      "outputs": [
        {
          "internalType": "string",
          "name": "name",
          "type": "string"
        },
        {
          "internalType": "uint256",
          "name": "level",
          "type": "uint256"
        },
        {
          "internalType": "bytes32",
          "name": "fileHash",
          "type": "bytes32"
        },
        {
          "internalType": "address",
          "name": "owner",
          "type": "address"
        }
      ],
      "stateMutability": "view",
      "type": "function",
      "constant": true
    },
    {
      "inputs": [
        {
          "internalType": "string",
          "name": "name",
          "type": "string"
        },
        {
          "internalType": "uint256",
          "name": "level",
          "type": "uint256"
        },
        {
          "internalType": "string",
          "name": "fileHash",
          "type": "string"
        }
      ],
      "name": "addSkill",
      "outputs": [],
      "stateMutability": "nonpayable",
      "type": "function"
    },
    {
      "inputs": [
        {
          "internalType": "uint256",
          "name": "skillId",
          "type": "uint256"
        }
      ],
      "name": "getSkill",
      "outputs": [
        {
          "internalType": "string",
          "name": "",
          "type": "string"
        },
        {
          "internalType": "uint256",
          "name": "",
          "type": "uint256"
        },
        {
          "internalType": "bytes32",
          "name": "",
          "type": "bytes32"
        },
        {
          "internalType": "address",
          "name": "",
          "type": "address"
        }
      ],
      "stateMutability": "view",
      "type": "function",
      "constant": true
    },
    {
      "inputs": [
        {
          "internalType": "address",
          "name": "owner",
          "type": "address"
        }
      ],
      "name": "getOwnedSkills",
      "outputs": [
        {
          "internalType": "uint256[]",
          "name": "",
          "type": "uint256[]"
        }
      ],
      "stateMutability": "view",
      "type": "function",
      "constant": true
    },
    {
      "inputs": [
        {
          "internalType": "string",
          "name": "fileHash",
          "type": "string"
        },
        {
          "internalType": "string",
          "name": "name",
          "type": "string"
        },
        {
          "internalType": "uint256",
          "name": "level",
          "type": "uint256"
        }
      ],
      "name": "verifySkill",
      "outputs": [
        {
          "internalType": "bool",
          "name": "",
          "type": "bool"
        }
      ],
      "stateMutability": "view",
      "type": "function",
      "constant": true
    }
  ],
  "bytecode": "0x608060405234801561001057600080fd5b506111b4806100206000396000f3fe608060405234801561001057600080fd5b50600436106100625760003560e01c806306023a501461006757806350d15fbe14610083578063656ae304146100b6578063787b9322146100e65780639fe661a914610116578063bd880fae14610146575b600080fd5b610081600480360381019061007c91906108a5565b610179565b005b61009d60048036038101906100989190610930565b610315565b6040516100ad9493929190610a45565b60405180910390f35b6100d060048036038101906100cb9190610abd565b6103fd565b6040516100dd9190610ba8565b60405180910390f35b61010060048036038101906100fb9190610bca565b610494565b60405161010d9190610c0a565b60405180910390f35b610130600480360381019061012b9190610c25565b6104c5565b60405161013d9190610ccb565b60405180910390f35b610160600480360381019061015b9190610930565b6105bd565b6040516101709493929190610a45565b60405180910390f35b600081805190602001209050600060405180608001604052808681526020018581526020018381526020013373ffffffffffffffffffffffffffffffffffffffff1681525090506000808054905090506000829080600181540180825580915050600190039060005260206000209060040201600090919091909150600082015181600001908161020a9190610ef2565b50602082015181600101556040820151816002015560608201518160030160006101000a81548173ffffffffffffffffffffffffffffffffffffffff021916908373ffffffffffffffffffffffffffffffffffffffff1602179055505050600160003373ffffffffffffffffffffffffffffffffffffffff1673ffffffffffffffffffffffffffffffffffffffff1681526020019081526020016000208190806001815401808255809150506001900390600052602060002001600090919091909150557fb5e9c84512deb2bf4ef4d994044a2f29b92361d65493d3e65ed4ebfdf3b3fd9a8187878633604051610305959493929190610fc4565b60405180910390a1505050505050565b6000818154811061032557600080fd5b906000526020600020906004020160009150905080600001805461034890610d15565b80601f016020809104026020016040519081016040528092919081815260200182805461037490610d15565b80156103c15780601f10610396576101008083540402835291602001916103c1565b820191906000526020600020905b8154815290600101906020018083116103a457829003601f168201915b5050505050908060010154908060020154908060030160009054906101000a900473ffffffffffffffffffffffffffffffffffffffff16905084565b6060600160008373ffffffffffffffffffffffffffffffffffffffff1673ffffffffffffffffffffffffffffffffffffffff16815260200190815260200160002080548060200260200160405190810160405280929190818152602001828054801561048857602002820191906000526020600020905b815481526020019060010190808311610474575b50505050509050919050565b600160205281600052604060002081815481106104b057600080fd5b90600052602060002001600091509150505481565b6000808480519060200120905060008480519060200120905060005b6000805490508110156105ae5782600082815481106105035761050261101e565b5b90600052602060002090600402016002015414801561055a575081600082815481106105325761053161101e565b5b906000526020600020906004020160000160405161055091906110f0565b6040518091039020145b801561058a575084600082815481106105765761057561101e565b5b906000526020600020906004020160010154145b1561059b57600193505050506105b6565b80806105a690611136565b9150506104e1565b506000925050505b9392505050565b606060008060008085815481106105d7576105d661101e565b5b9060005260206000209060040201600001600086815481106105fc576105fb61101e565b5b906000526020600020906004020160010154600087815481106106225761062161101e565b5b906000526020600020906004020160020154600088815481106106485761064761101e565b5b906000526020600020906004020160030160009054906101000a900473ffffffffffffffffffffffffffffffffffffffff1683805461068690610d15565b80601f01602080910402602001604051908101604052809291908181526020018280546106b290610d15565b80156106ff5780601f106106d4576101008083540402835291602001916106ff565b820191906000526020600020905b8154815290600101906020018083116106e257829003601f168201915b5050505050935093509350935093509193509193565b6000604051905090565b600080fd5b600080fd5b600080fd5b600080fd5b6000601f19601f8301169050919050565b7f4e487b7100000000000000000000000000000000000000000000000000000000600052604160045260246000fd5b61077c82610733565b810181811067ffffffffffffffff8211171561079b5761079a610744565b5b80604052505050565b60006107ae610715565b90506107ba8282610773565b919050565b600067ffffffffffffffff8211156107da576107d9610744565b5b6107e382610733565b9050602081019050919050565b82818337600083830152505050565b600061081261080d846107bf565b6107a4565b90508281526020810184848401111561082e5761082d61072e565b5b6108398482856107f0565b509392505050565b600082601f83011261085657610855610729565b5b81356108668482602086016107ff565b91505092915050565b6000819050919050565b6108828161086f565b811461088d57600080fd5b50565b60008135905061089f81610879565b92915050565b6000806000606084860312156108be576108bd61071f565b5b600084013567ffffffffffffffff8111156108dc576108db610724565b5b6108e886828701610841565b93505060206108f986828701610890565b925050604084013567ffffffffffffffff81111561091a57610919610724565b5b61092686828701610841565b9150509250925092565b6000602082840312156109465761094561071f565b5b600061095484828501610890565b91505092915050565b600081519050919050565b600082825260208201905092915050565b60005b8381101561099757808201518184015260208101905061097c565b60008484015250505050565b60006109ae8261095d565b6109b88185610968565b93506109c8818560208601610979565b6109d181610733565b840191505092915050565b6109e58161086f565b82525050565b6000819050919050565b6109fe816109eb565b82525050565b600073ffffffffffffffffffffffffffffffffffffffff82169050919050565b6000610a2f82610a04565b9050919050565b610a3f81610a24565b82525050565b60006080820190508181036000830152610a5f81876109a3565b9050610a6e60208301866109dc565b610a7b60408301856109f5565b610a886060830184610a36565b95945050505050565b610a9a81610a24565b8114610aa557600080fd5b50565b600081359050610ab781610a91565b92915050565b600060208284031215610ad357610ad261071f565b5b6000610ae184828501610aa8565b91505092915050565b600081519050919050565b600082825260208201905092915050565b6000819050602082019050919050565b610b1f8161086f565b82525050565b6000610b318383610b16565b60208301905092915050565b6000602082019050919050565b6000610b5582610aea565b610b5f8185610af5565b9350610b6a83610b06565b8060005b83811015610b9b578151610b828882610b25565b9750610b8d83610b3d565b925050600181019050610b6e565b5085935050505092915050565b60006020820190508181036000830152610bc28184610b4a565b905092915050565b60008060408385031215610be157610be061071f565b5b6000610bef85828601610aa8565b9250506020610c0085828601610890565b9150509250929050565b6000602082019050610c1f60008301846109dc565b92915050565b600080600060608486031215610c3e57610c3d61071f565b5b600084013567ffffffffffffffff811115610c5c57610c5b610724565b5b610c6886828701610841565b935050602084013567ffffffffffffffff811115610c8957610c88610724565b5b610c9586828701610841565b9250506040610ca686828701610890565b9150509250925092565b60008115159050919050565b610cc581610cb0565b82525050565b6000602082019050610ce06000830184610cbc565b92915050565b7f4e487b7100000000000000000000000000000000000000000000000000000000600052602260045260246000fd5b60006002820490506001821680610d2d57607f821691505b602082108103610d4057610d3f610ce6565b5b50919050565b60008190508160005260206000209050919050565b60006020601f8301049050919050565b600082821b905092915050565b600060088302610da87fffffffffffffffffffffffffffffffffffffffffffffffffffffffffffffffff82610d6b565b610db28683610d6b565b95508019841693508086168417925050509392505050565b6000819050919050565b6000610def610dea610de58461086f565b610dca565b61086f565b9050919050565b6000819050919050565b610e0983610dd4565b610e1d610e1582610df6565b848454610d78565b825550505050565b600090565b610e32610e25565b610e3d818484610e00565b505050565b5b81811015610e6157610e56600082610e2a565b600181019050610e43565b5050565b601f821115610ea657610e7781610d46565b610e8084610d5b565b81016020851015610e8f578190505b610ea3610e9b85610d5b565b830182610e42565b50505b505050565b600082821c905092915050565b6000610ec960001984600802610eab565b1980831691505092915050565b6000610ee28383610eb8565b9150826002028217905092915050565b610efb8261095d565b67ffffffffffffffff811115610f1457610f13610744565b5b610f1e8254610d15565b610f29828285610e65565b600060209050601f831160018114610f5c5760008415610f4a578287015190505b610f548582610ed6565b865550610fbc565b601f198416610f6a86610d46565b60005b82811015610f9257848901518255600182019150602085019450602081019050610f6d565b86831015610faf5784890151610fab601f891682610eb8565b8355505b6001600288020188555050505b505050505050565b600060a082019050610fd960008301886109dc565b8181036020830152610feb81876109a3565b9050610ffa60408301866109dc565b61100760608301856109f5565b6110146080830184610a36565b9695505050505050565b7f4e487b7100000000000000000000000000000000000000000000000000000000600052603260045260246000fd5b600081905092915050565b60008190508160005260206000209050919050565b6000815461107a81610d15565b611084818661104d565b9450600182166000811461109f57600181146110b4576110e7565b60ff19831686528115158202860193506110e7565b6110bd85611058565b60005b838110156110df578154818901526001820191506020810190506110c0565b838801955050505b50505092915050565b60006110fc828461106d565b915081905092915050565b7f4e487b7100000000000000000000000000000000000000000000000000000000600052601160045260246000fd5b60006111418261086f565b91507fffffffffffffffffffffffffffffffffffffffffffffffffffffffffffffffff820361117357611172611107565b5b60018201905091905056fea264697066735822122047dc8c8def184e83d02572613978696dd9b4515c715940d0610eea56542a1ece64736f6c63430008120033",
  "immutableReferences": {},
  "source": "// SPDX-License-Identifier: MIT\npragma solidity >=0.4.22 <0.9.0;\n\ncontract DocumentVerification {\n    // Define a struct to represent a skill or qualification\n    struct Skill {\n        string name;\n        uint256 level;\n        bytes32 fileHash;\n        address owner;\n    }\n    \n    // Define an array to store all skills\n    Skill[] public skills;\n    \n    // Define a mapping to keep track of skills owned by each address\n    mapping (address => uint[]) public ownedSkills;\n    \n    // Define an event to emit when a new skill is added\n    event SkillAdded(uint skillId, string name, uint256 level, bytes32 fileHash, address owner);\n    \n    // Define a function to add a new skill\n    function addSkill(string memory name, uint256 level, string memory fileHash) public {\n    // Convert file hash to bytes32 using keccak256 hash function\n    bytes32 fileHashBytes = keccak256(bytes(fileHash));\n    \n    // Create a new Skill struct with the given parameters\n    Skill memory newSkill = Skill(name, level, fileHashBytes, msg.sender);\n    \n    // Add the new skill to the skills array and get its ID\n    uint skillId = skills.length;\n    skills.push(newSkill);\n    \n    // Add the new skill ID to the ownedSkills mapping for the owner's address\n    ownedSkills[msg.sender].push(skillId);\n    \n    // Emit a SkillAdded event with the new skill's details\n    emit SkillAdded(skillId, name, level, fileHashBytes, msg.sender);\n}\n\n    // function addSkill(string memory name, uint256 level, bytes32 fileHash) public {\n    //     // Create a new Skill struct with the given parameters\n    //     Skill memory newSkill = Skill(name, level, fileHash, msg.sender);\n        \n    //     // Add the new skill to the skills array and get its ID\n    //     uint skillId = skills.length;\n    //     skills.push(newSkill);\n        \n    //     // Add the new skill ID to the ownedSkills mapping for the owner's address\n    //     ownedSkills[msg.sender].push(skillId);\n        \n    //     // Emit a SkillAdded event with the new skill's details\n    //     emit SkillAdded(skillId, name, level, fileHash, msg.sender);\n    // }\n    \n    // Define a function to get the details of a skill by ID\n    function getSkill(uint skillId) public view returns (string memory, uint256, bytes32, address) {\n        // Return the name, level, file hash, and owner of the skill with the given ID\n        return (skills[skillId].name, skills[skillId].level, skills[skillId].fileHash, skills[skillId].owner);\n    }\n    \n    // Define a function to get the IDs of all skills owned by an address\n    function getOwnedSkills(address owner) public view returns (uint[] memory) {\n        // Return the array of skill IDs owned by the given address\n        return ownedSkills[owner];\n    }\n    \n    // Define a function to verify a skill by file hash\n    function verifySkill(string memory fileHash, string memory name, uint256 level) public view returns (bool) {\n    bytes32 fileHashHash = keccak256(bytes(fileHash));\n    bytes32 nameHash = keccak256(bytes(name));\n    for (uint i = 0; i < skills.length; i++) {\n        if (skills[i].fileHash == fileHashHash && keccak256(bytes(skills[i].name)) == nameHash && skills[i].level == level) {\n            return true;\n        }\n    }\n    return false;\n}\n\n    // function verifySkill(string memory fileHash, string memory name, uint256 level) public view returns (bool) {\n    //     bytes32 fileHashHash = keccak256(bytes(fileHash));\n    //     for (uint i = 0; i < skills.length; i++) {\n    //         if (skills[i].fileHash == fileHashHash && skills[i].name == name && skills[i].level == level) {\n    //             return true;\n    //         }\n    //     }\n    //     return false;\n    // }\n}\n",
  "sourcePath": "F:\\Projects\\Blockchain\\Skill\\document-verify\\contracts\\DocumentVerification.sol",
  "compiler": {
    "name": "solc",
    "version": "0.8.18+commit.87f61d96.Emscripten.clang"
  },
  "schemaVersion": "3.4.12",
  "updatedAt": "2023-04-14T10:28:20.033Z",
  "networkType": "ethereum",
  "devdoc": {
    "kind": "dev",
    "methods": {},
    "version": 1
  },
  "userdoc": {
    "kind": "user",
    "methods": {},
    "version": 1
  }
}